:020000040800F2
:10000000E80D002001010008BD230008A12200081E
:10001000B9230008D5010008D54100080000000000
:10002000000000000000000000000000C5230008E0
:10003000D901000800000000C1230008C9230008FE
:100040001B0100081B0100081B0100081B01000820
:100050001B0100081B0100081B0100081B01000810
:100060001B0100081B0100081B0100081B01000800
:100070001B0100081B0100081B0100081B010008F0
:100080001B0100081B0100081B0100081B010008E0
:10009000854000081B0100081B0100081B01000827
:1000A0001B0100081B0100081B0100081B010008C0
:1000B0001B0100081B0100081B0100081B010008B0
:1000C0001B0100081B0100081B0100081B010008A0
:1000D0001B01000895240008A12400081B0100084A
:1000E0001B0100081B0100081B010008DFF80CD0F1
:1000F00000F032F800480047F9410008E80D002000
:100100000648804706480047FEE7FEE7FEE7FEE7B1
:10011000FEE7FEE7FEE7FEE7FEE7FEE7CD23000889
:10012000ED000008D2B201E000F8012B491EFBD21D
:1001300070470022F6E710B513460A4604461946F2
:10014000FFF7F0FF204610BD421C10F8011B0029EC
:10015000FBD1801A70470000064C074D06E0E068AE
:1001600040F0010394E8070098471034AC42F6D3FE
:10017000FFF7C0FF2C4300084C43000870B58C18F3
:1001800010F8015B15F0070301D110F8013B2A11AB
:1001900006D110F8012B03E010F8016B01F8016B98
:1001A0005B1EF9D12B0705D40023521E0DD401F894
:1001B000013BFAE710F8013BCB1A921C03E013F85D
:1001C000015B01F8015B521EF9D5A142D8D3002092
:1001D00070BD0000FEE7000070470000EFF31080E4
:1001E00072B600BFFEE70000014690F82100022829
:1001F00016D10868D1E90FC3026822F00E0202602E
:10020000026822F001020260012000FA03F2CCF839
:10021000042081F821000020002281F8202070476E
:10022000042088630120002281F82020704700000C
:1002300080B590F82110022924D10268116821F0BC
:100240000E0111602F211368C4F202018A4240F2AC
:100250000401C4F2020123F00103136016DD302310
:10026000C4F202039A421DD04423C4F202039A420C
:100270001CD05823C4F202039A421DD14FF480339C
:1002800022E000BF04218163012080BD0823C4F265
:1002900002039A420ED01C23C4F202039A420BD1ED
:1002A000102311E04FF480730EE000BF4FF4805331
:1002B0000AE000BF012307E001F1680C4FF08073F2
:1002C000624508BF4FF480130B60416B4FF480729E
:1002D000028401B18847002080BD0000B0B504460B
:1002E00000F01AF9054640F20400C2F2000000785E
:1002F000611C18BF044400BF00F00EF9401BA0426F
:10030000FAD3B0BD2DE9F04F82B041F20042C4F201
:1003100001020E680423904208BF0323002E0093BD
:1003200000F0F68040F20C4E4FF6FF7CC4F2010E56
:1003300000220124C1F2100C4FF0000A4FF0000916
:1003400043E000BF012502F00C040F27A7402BEA71
:10035000070705FA04F43C4343F82640D1F804B0FB
:1003600040F20045C4F201055FEACB332B6854BF6D
:1003700023EA080343EA08032B606B685FEA8B34C7
:1003800054BF23EA080343EA08036B605FEACB2407
:10039000AB6854BF23EA080343EA08035FEA8B24EF
:1003A000AB60DEF800304FF0010454BF23EA0803CD
:1003B00043EA0803CEF800300E680AF1010A36FA63
:1003C0000AF302F1040200F0A38004FA0AF816EA24
:1003D000080FF1D04B68634512DC122B56D8DFE8CA
:1003E00003F0350B454955555555555555555555FA
:1003F0005555554D510000BFD1F80C9046E000BF57
:100400004FF6FF77C1F22107BB420FDC0027C1F294
:100410001107BB421AD00027C1F21207BB4215D008
:100420000027C1F22107BB4210D02FE00027C1F204
:100430002207BB420AD00027C1F23107BB4205D0D8
:100440000027C1F23207BB4220D100BF8B684BB1FD
:10045000012B14BFC0F81480C0F810804FF00809B9
:1004600014E000BF4FF0040910E000BFCB6803F1B7
:1004700008090BE04FF0000908E000BFCB6803F16A
:10048000040903E0CB6803F10C0900BF13460546DD
:10049000BAF1080F24BF203B04352E680F279F4078
:1004A000BE4309FA03F333432B60CB79DB067FF5B8
:1004B00083AF41F21804C4F2020423684FEA9A069B
:1004C00043F001032360236840F6000403F00103B6
:1004D0000193019B40F20043C4F20103A3F57E7334
:1004E00053F826B0C4F20104A0420FD040F60044F5
:1004F000C4F20104A0423FF425AF41F20004C4F26B
:100500000104009DA04208BF02251CE700251AE750
:1005100002B0BDE8F08F000040F6E010C2F200002B
:100520000068704740F2040040F6E011C2F200009B
:10053000C2F2000100780A681044086070470000A9
:1005400080B542F20000C4F20200016841F01001DF
:100550000160032000F08AF80F2000F005F800F099
:1005600027F8002080BD000070B540F20406C2F2FA
:10057000000640F274013278C2F200014FF47A733F
:100580000968B3FBF2F20446B1FBF2F1084601F050
:1005900071FA0F2C4FF0010508D838B94FF0FF3031
:1005A00021460022002500F035F87460284670BD11
:1005B00082B041F21800C4F202000168022241F048
:1005C00001010160016801F0010101910199416897
:1005D00041F080514160406800F0805000900098E8
:1005E0000420C4F20100016862F31A61016002B0E4
:1005F00070470000002848BF704700F01F0101222B
:1006000002FA01F14EF200124009CEF2000242F865
:100610002010704710B54EF60C5CCEF2000CDCF8E2
:100620000030C3F3022E8EF00704042C28BF0424EC
:10063000BEF103034FF0FF3E0EFA04F438BF00236F
:10064000A14399400EFA03F39A43114300F00F02BD
:10065000043A624409010C3200F16043B0F1FF3FFB
:10066000C8BF03F56442117010BD00004EF60C5176
:10067000CEF200010A684FF6FF031A4060F30A2227
:1006800042F0806040F0FD700860704780B501F076
:10069000070C0CEB8C0C00EBCC0C01EB810E0CF17D
:1006A000280C00EBCE00090658BF00F5B47C0020F2
:1006B000002A19BFCCF808300121ACF8063000211F
:1006C0008CF80C1080BD00007047000001EB810227
:1006D000D0F8E83200EBC200C26B184602F0DAB97B
:1006E00001EB8102D0F8E83200EBC200D0F87C21A7
:1006F000184602F035BA000010B50446080601F0AD
:10070000070000EB800104EBC10205D402F5B471CF
:10071000002382F8693104E0012302F1280182F804
:10072000293094F8A8220870012A04BF022010BDC5
:100730002068012284F8A82202F016FF002084F825
:10074000A80210BDB0B50446406801F00F02824215
:1007500084BF0120B0BD080601F0070000EB800156
:1007600004EBC10206D402F5B471002382F86931AA
:1007700005E000BF012302F1280182F8293094F836
:10078000A8220025012A8D70087004BF0220B0BD88
:100790002068012284F8A82202F076FF284684F817
:1007A000A852B0BDB0B50546080601F0070000EB41
:1007B000800105EBC10C05D40CF5B47100248CF854
:1007C000694104E001240CF128018CF829404C789F
:1007D0000870002C0A61CB7018BFC881022B04BFBF
:1007E0000020087195F8A802012804BF0220B0BDBE
:1007F0002868012285F8A82202F0A4FD002085F8CF
:10080000A802B0BD10B501F0070C0CEB8C0100EB99
:10081000C10E00680EF5B4710024CEF87C21CEF82C
:100820008031CEF884418EF869418EF868C102F0BB
:1008300083FF002010BD0000B0B50446406801F001
:100840000705854284BF0120B0BD08060AD401EB2C
:10085000810004EBC00000F5B471002280F869212A
:1008600009E000BF05EB850004EBC000012200F1A8
:10087000280180F8292094F8A802012201288A7012
:100880000D7004BF0220B0BD206884F8A82202F0D9
:1008900039FF1DB1002084F8A802B0BD206804F51E
:1008A0002C7102F0EFFE002084F8A802B0BD000019
:1008B00080B501F0070C0CEB8C0100EBC10101F8D5
:1008C00028CF00684FF0010C01F1140781F824C013
:1008D0004FF0000E87E80C400B6281F801C002F077
:1008E0002BFF002080BD00002DE9F04F81B00446B1
:1008F000006803F0CDFB000402D4206807E000BFCD
:100900002068B0F94410B1F1FF3F40F3D78003F005
:10091000BFFB400519D52068B0F8441021F4806170
:10092000A0F84410204600F0D9FC94F8A802012851
:100930000BD00120002584F8A80284F824502068F8
:10094000002103F0FBFB84F8A852206803F0A0FB11
:1009500001462068490405D5B0F8441021F48041CF
:10096000A0F8441003F094FB01462068890405D5E3
:10097000B0F8441021F40051A0F8441003F088FBB3
:1009800001462068C90411D403F082FB000527D476
:10099000206803F07DFB800576D4206803F078FBA7
:1009A000C00500F1818001B0BDE8F08FB0F84010C3
:1009B00021F00401A0F84010B0F8401021F0080127
:1009C000A0F84010204600F09BFC2068B0F84410CE
:1009D00021F48051A0F8441003F05AFB0005D7D54C
:1009E0002068B0F800C0B0F804E0B0F8088087894B
:1009F000068A858A018B828BB0F8403043F0010370
:100A0000A0F84030B0F8403023F00103A0F84030A7
:100A1000B0F844305B050CD4B0F844305B055CBFE3
:100A2000B0F844305FEA435303D4B0F844305B0578
:100A3000EED5B0F8443023F48063A0F84430A0F839
:100A400000C0A0F804E0A0F80880878106828582B3
:100A500001838283B0F8401041F00801A0F84010F3
:100A6000B0F8441021F40061A0F84410B0F8401030
:100A700041F00401A0F84010204600F07FFC2068FF
:100A800003F006FB800588D52068B0F8441021F4F7
:100A90000071A0F84410204600F036FC206803F0F6
:100AA000F7FAC0057FF57FAF2068B0F8441021F455
:100AB0008071A0F8441001B0BDE8F08F04F52C71EE
:100AC00040F60F7B009109E02046FFF7FFFD00BFD5
:100AD0002068B0F9441000297FF519AFB0F8442020
:100AE00012F00F094AD030F829804FEA490A5FEA2C
:100AF000084140F16D8130F81A1040F60F7501EA97
:100B00000B01803120F81A1009EB890104EBC10BAD
:100B10009BF874110BF5B476002900F0A1809BF8C6
:100B20006B11022940F0B080B0F8502031785FEAB4
:100B3000484302EBC10200EB420200F1DD80B2F853
:100B40000C74DBF880216FF39F27D21B4FF000035A
:100B500038BF1A46CBF8802140F2E8805FEA48624D
:100B600000F1F48030F8212048F2C0032A401A43F3
:100B700020F82120002F40F0EA800DE10188D20604
:100B80002CD401EA0B0101F500410180B0F85010AE
:100B900094F8282001EBC20100EB4100B0F80404F6
:100BA000E16B6FF39F2060640844E06320460021FE
:100BB000FFF78CFD94F82400002889D0206C0028D1
:100BC00086D194F82400216840F08000C0B2A1F8DA
:100BD0004C00002084F824007AE700BF0A056DD499
:100BE00009047FF575AF018801EA0B0180310180AE
:100BF000B0F8501094F8682101EBC20100EB4101FC
:100C0000B1F80C346FF39F23C4F8843193B1D4F856
:100C10007C1179B1B4F86E2103F03EFAD4F87C016E
:100C2000D4F884110844C4F87C0120460021FFF761
:100C300057FD2068018809053FF54AAFB0F850100C
:100C4000D4F8783100F20C42002B00F0CB813E2B1F
:100C500000F2D48103F0010707EB53039B02DAE1B2
:100C6000B0F85010327801EBC20100EB4101B1F84D
:100C70000C746FF39F27002F00F08E80DBF87C113F
:100C8000BBF86E2184E000BF317848F2C00330F831
:100C900021202A401A4320F8212030F82120B0F8E2
:100CA0005030520403EBC10100EB410138D4B1F8DC
:100CB0000C746FF39F27002F49D16DE0B0F85010EE
:100CC00094F8682101EBC20100EB4101B1F80C344A
:100CD000B4F86E2100996FF39F23C4F8843103F0B8
:100CE000DBF92068018801EA0B0180310180204690
:100CF00000F022FBECE600BFB2F80474DBF88021C0
:100D00006FF39F27D21B4FF0000338BF1A46CBF872
:100D1000802121D95FEA48622DD4AFBB3CE000BFFF
:100D2000B1F804746FF39F2777BB35E030F82120CA
:100D300043F60F731A404CF28003A3F500535A4058
:100D400020F821205FEA48627FF50CAF27B3DBF87B
:100D50007C11BBF872211BE030F8212043F60F73A1
:100D60001A404CF28003A3F500535A4020F821208A
:100D70005FEA4862D1D530F8212048F2C0032A400A
:100D80001A4320F821203FB1DBF87C11BBF8702119
:100D90003B4603F081F900E00027DBF88411DBE932
:100DA0005F0239443844CBF88411CBF87C011AB186
:100DB000DBF87801B84205D931782046FFF790FC7E
:100DC00004E000BF2068314602F0B6FC40F60F7B1D
:100DD0005FEA08607FF57CAE206809EB890130F896
:100DE0001A3004EBC10203EA0B0101F5004120F8BF
:100DF0001A1092F82B1002F12806002918BF0329B7
:100E00001CD1B0F850303178176C03EBC10300EB04
:100E10004303B3F8043400256FF39F23FF1A38BF50
:100E20002F4617647FF650AED16B576C1944D163CF
:100E3000F9185164314602F07FFC49E6022902D1DB
:100E40005FEAC851DDD5B0F8503031785FEA4867C5
:100E500003EBC10344D400F20C4939F81370136C4E
:100E60006FF39F27DB1B4FF0000538BF2B46136441
:100E700070D95FEA484308D430F821304CF280053D
:100E800003EA0B032B4320F82130154615F84C3F9D
:100E9000012B40F07B81134653F8488F53E904EC53
:100EA00053F804ACBC44BA44F04543F80CCC43F8C6
:100EB00004AC80F0F180B8F1000F00F02B81002726
:100EC000C6461F602F7092F82930012B40F0EC804D
:100ED000B0F8503009EB011121F803E040E100BF08
:100EE00000F2044939F81370136C6FF39F27DB1B72
:100EF0004FF0000538BF2B4613644FD95FEA4843D3
:100F000008D530F821304CF2800503EA0B032B435F
:100F100020F82130134613F84C5F012D40F0368144
:100F2000154655F848EF55E904AC55F8048CBC4417
:100F3000B844D64545F80CCC45F8048C80F0C68002
:100F40004FF00008BEF1000F83F8008040F0C18030
:100F5000BE46C0E092F82920012A69D0002A74D147
:100F6000B0F8502000EB01131A44B2F8043423F413
:100F7000F843A2F80434B2F8043443F40043A2F86E
:100F80000434B0F8500009EB0112135A23F4F8436B
:100F90001352135A43F4004356E000BF92F829203D
:100FA000012A59D0002A64D1B0F8502009EB01136E
:100FB0009F5A27F4F8479F529F5A47F400479F5281
:100FC000B0F8502000EB01101044B0F80C2422F4CB
:100FD000F842A0F80C24B0F80C2442F40042A0F827
:100FE0000C2446E08B5A48F2000723F4F8438B5256
:100FF0008B5ACFF6FF773B430DE000BF5F09DE065B
:101000004FF0FF3608BF06EB531748F20003CFF648
:10101000FF7343EA87238B52018843F60F72114016
:101020004CF28002A2F580525140018050E500BF91
:10103000B0F8502000EB01131A440023A2F8043446
:10104000B0F8500009EB011213522046FFF73EFBA7
:101050005FEA484014D599E0B0F8502009EB01133D
:1010600000279F52B0F8502000EB01101044A0F868
:101070000C742046FFF72AFB5FEA484040F1868067
:10108000206831784CF2800330F8212002EA0B020C
:101090001A4320F8212079E0A8EB0E051D6092F894
:1010A0002930012B3FF414AF002B59D1B0F8507008
:1010B000BEF1000F09EB011134D0BEF13E0F41D853
:1010C0000EF0010303EB5E039B0248E0AEEB0A085F
:1010D000D646C5F8008092F82930012B12D0002B9B
:1010E0004ED1B0F85050BEF1000F09EB011121D0E4
:1010F000BEF13E0F36D80EF0010303EB5E039B02F8
:101100003DE000BFB0F8503009EB011121F803E0D9
:1011100036E000BF00232B70BE4692F82930012B29
:10112000C2D1D5E67B5A23F4F8437B527B5A43F471
:10113000004314E06B5A23F4F8436B526B5A43F4A8
:1011400000431CE05FEACE654FEA5E134FF0FF35C7
:1011500008BF05EB5E134FF4004545EA83237B523D
:10116000528E0EE05FEACE674FEA5E134FF0FF3714
:1011700008BF07EB5E134FF4004747EA83236B5227
:10118000128E1FFA8EF3614602F0E0FF206831787C
:1011900040F63F7330F821201A4048F2C003103B5C
:1011A0005A4020F8212093E4F0B585B0002860D0A3
:1011B000044690F8A90228B9002084F8A802204625
:1011C00000F068F8032084F8A902206802F050FAC1
:1011D00094E82F50D4E907678DE82050CDE90367E4
:1011E00002F0C0F9002841D120680021002502F05A
:1011F000A3FF616851B301200023002203EB8303A6
:1012000004EBC30787F82820D3B20132FB86D3B2A0
:10121000994287F8290087F82B50C7E90E553D649D
:10122000ECD800200023002203EB830304EBC30768
:1012300087F868210132D3B2994287F8690187F8AB
:101240006B01C7E95E00C7F88001EDD804F108071B
:10125000D4E9056520688CCFD4E907CECDE90076C6
:1012600002AE86E8205002F0F5F938B1022084F889
:10127000A9020125284605B0F0BD00BF00250120C8
:1012800084F8245084F8A902206802F0E1F9284685
:1012900005B0F0BD80B582B0006845F60041C4F2EB
:1012A000000188421CBF02B080BD41F21C00C4F2A4
:1012B00002000168002241F4000101600068002181
:1012C00000F40000019001981420FFF7A3F9142006
:1012D00002B0BDE88040FFF78DB9000010B50446AC
:1012E0008068022818BFFEF779FFD4F8E8020121D0
:1012F00001F028FDD4F8E802BDE8104001F0E0BCA0
:10130000D0F8E80201F006BDD0F8E80201F00CBD0B
:1013100010B5044690F8A802012804BF022010BDB1
:10132000012084F8A80284F82410206802F006FF47
:10133000002084F8A80210BDD0F8E82200F52C7136
:10134000104601F015BD000010B5044690F8A80243
:10135000012804BF022010BD2068012184F8A812D2
:1013600002F086FE20460121FFF7AEF9206802F068
:101370006DF9002084F8A80210BD000010B50446E5
:10138000D0F8E80201F04AFDA069002808BF10BDAE
:101390004EF61050CEF20000016841F006010160E7
:1013A00010BD00002DE9F04182B00446007841F202
:1013B0001C06C007C4F202064AD0306810F08058FC
:1013C00008D1306840F080503060306800F08050C4
:1013D0000190019847F20007C4F200073868C00581
:1013E00012D4386840F480703860FFF795F80546ED
:1013F0003868C00508D4FFF78FF8401B6428F7D978
:10140000032002B0BDE8F081706810F4407012D083
:10141000616801F4407188420DD0706840F240422A
:10142000C4F24222012320F4407113600023C0075C
:10143000136071602AD17068616820F440700843BD
:10144000B8F1000F706003D1306820F08050306038
:101450002068810707D556F8181CA26821F440417E
:10146000114346F8181CC00604D4002002B0BDE8A1
:10147000F08100BF56F8180CE16820F480000843A2
:1014800046F8180C002002B0BDE8F081FFF744F8E0
:10149000054641F2883700BF70688007CBD4FFF75C
:1014A0003BF8401BB8424FF00300F5D9EBE70000D2
:1014B0002DE9F04381B0002800F0858042F2000859
:1014C000C4F202080446D8F800000D4600F00700F8
:1014D00088420CD2D8F8000020F007002843C8F852
:1014E0000000D8F8000000F00700A8426BD1206887
:1014F00041F204098107C4F2020917D5410705D555
:10150000D9F8001041F4E061C9F80010010705D5D1
:10151000D9F8001041F46051C9F80010D9F8001052
:10152000A26821F0F0011143C9F80010C00741D1B1
:10153000D8F8000000F00700A8420CD9D8F8000045
:1015400020F007002843C8F80000D8F8000000F099
:101550000700A84237D12068410707D5D9F8001005
:10156000E26821F4E0611143C9F80010000708D5D2
:10157000D9F80000216920F4605040EAC100C9F8A0
:101580000000D9F8002002F00C00082841F20020E9
:10159000C0F27A0050D144F21A33C2F38341C0F64C
:1015A0000003595CD2033BD440F60010C0F23D006A
:1015B000484341E0606802280AD001282AD159F83E
:1015C000041C890308D4012001B0BDE8F08300BFEA
:1015D00059F8041C8901F6D5D9F8001021F003014F
:1015E0000843C9F80000FEF797FF064641F2883726
:1015F000D9F80000616800F00C00B0EB810F97D0C3
:10160000FEF78AFF801BB842F2D9032001B0BDE883
:10161000F08300BF59F8041C8907D4D5DCE700BF6C
:10162000D9F8002044F20033C2F34042C0F6000370
:101630009A5C4843B0FBF2F0D9F8001044F2023251
:10164000C1F30311C0F60002515C40F2740220FAAB
:1016500001F140F20800C2F200000068C2F200028C
:101660001160FEF781FF002001B0BDE8F0830000AB
:1016700040F2740041F20401C2F20000C4F202011F
:101680000068096844F21232C1F30221C0F6000278
:10169000515CC8407047000040F2740041F2040100
:1016A000C2F20000C4F202010068096844F212327A
:1016B000C1F3C221C0F60002515CC840704700006F
:1016C0002DE9F04182B0002868D00446007841F24C
:1016D0000006C007C4F2020625D0706800F00C00B6
:1016E00004281BD0706800F00C00082802D1706834
:1016F000C00313D46068002800F06881B0F5A02F03
:1017000000F07C81B0F5803F00F07C81306820F4EF
:1017100080303060306820F4802076E130688003CB
:1017200001D56068D0B32078800718D5706810F0B4
:101730000C0F07D0706800F00C0008286ED170689C
:10174000C0036BD43068800702D52069012825D1F9
:101750003068616920F0F80040EAC100306020780C
:1017600000071FD42078400732D4E56995B170682E
:1017700000F00C00082840F08F80012D0ED070681A
:10178000216A00F480328A4208D1616A00F4701044
:10179000884203D1002002B0BDE8F081012002B0F0
:1017A000BDE8F081A069002862D00020C4F2422088
:1017B0000121C0F88014FEF7AFFE0546706A80076D
:1017C00000F18C80FEF7A8FE401B0228F6D92AE122
:1017D000F06910F0805808D1F06940F08050F06155
:1017E000F06900F080500090009847F20007C4F2C2
:1017F00000073868C00529D4386840F48070386024
:10180000FEF78AFE054600BF3868C0051ED4FEF705
:1018100083FE401B6428F7D905E100BF206900283A
:1018200040F20000C4F2422000F0828001210160F9
:10183000FEF772FE054600BF306880073FF588AFAF
:10184000FEF76AFE401B0228F6D9ECE0E0680028AB
:1018500000F08080052800F09780012800F0988033
:10186000306A20F001003062306A20F0040092E01B
:101870000020C4F242200021C0F88014FEF74CFE84
:10188000054600BF706A80077FF56CAFFEF744FE27
:10189000401B0228F6D9C6E00027C4F242270020E8
:1018A0003866FEF739FE022D05460BD130688001FF
:1018B00040F1BE80FEF730FE401B02284FF00300CF
:1018C000F4D968E7306880017FF564AFFEF724FE45
:1018D000401B02284FF00300F4D95CE740F274008B
:1018E000C2F20000006844F6D351C1F26201A0FBCD
:1018F0000101480A019000BF00BF0198411E002865
:1019000001913FF42FAF00BF0198411E00280191C3
:101910003FF428AF00BF0198411E002801913FF419
:1019200021AF00BF0198411E00280191E4D119E7C1
:1019300000210160FEF7F0FD054600BF306880071A
:101940007FF50DAFFEF7E8FD401B02284FF00300C6
:10195000F4D920E7306A20F001003062306A20F0CC
:1019600004003062FEF7D8FD054641F2883700BF1B
:10197000306A800720D5FEF7CFFD401BB8424FF0FC
:101980000300F5D907E700BF306A40F00400306279
:10199000306A40F001003062FEF7BEFD054641F2BC
:1019A000883700BF306A800706D4FEF7B5FD401BBC
:1019B000B842F7D937E000BFB8F1000F7FF4D5AED9
:1019C000F06920F08050F061CFE600BF306820F46D
:1019D00080303060306820F480203060FEF79CFD5D
:1019E000054600BF306880037FF59DAEFEF794FD8D
:1019F000401B64284FF00300F4D9CCE6306840F473
:101A000080203060306840F480303060FEF784FD24
:101A1000054600BF306880033FF585AEFEF77CFDCC
:101A2000401B6428F6D9032002B0BDE8F08100BF56
:101A3000206AB0F5803F05D17168A26821F40031B9
:101A4000114371607168626A21F474111043084394
:101A5000706001203866FEF75FFD04463068800143
:101A60003FF598AEFEF758FD001B02284FF003002B
:101A7000F4D990E6411E0020B0EB116F1CBF01208D
:101A800070474EF21002CEF2000251604EF6235122
:101A9000CEF20001F0230B700721906011607047B7
:101AA0007047000070470000B0B582B0026805467C
:101AB0001068D368546900F02F01202903F0200139
:101AC00006D129B1284602B0BDE8B04000F086BC7E
:101AD0005FEA007C1EBF04F0010E03F4907414EB67
:101AE0000E0455D1296B012905D110F0100118BF42
:101AF00013F0100136D1010622D513F080011FD05A
:101B000095F83D00212841D1A868B0F5805F03D148
:101B10002869002800F0F680286A411C29620078B4
:101B20005060E88C01380104E8842FD1D06820F09F
:101B30008000D060D06840F04000D06002B0B0BDFE
:101B4000400623D513F0400020D0D068202120F09B
:101B50004000D060284685F83D1002B0BDE8B04096
:101B600000F09CBB0020019010680190506801902B
:101B700001985069400613D4A88DE98DEB8D002B98
:101B80001CBF401A5FEA004140F0A48002B0B0BD23
:101B9000C40718BF13F480732CD1430730D436E048
:101BA000A86B01684B689CB2002CEFD0A98D8C42C9
:101BB000ECD2EB858369202B17D0D16821F480719A
:101BC000D160516921F001015161516921F0400159
:101BD0005161202185F83E1000212963D16821F050
:101BE0001001D160FEF700FBA98DE88D081A81B2C3
:101BF000284682E02B6C43F001032B64430706D593
:101C0000BEF1000F03D02B6C43F002032B6483075B
:101C100006D5BEF1000F03D02B6C43F004032B64F8
:101C2000BCF1000F06D551EA0E0303D02B6C43F034
:101C300008032B642B6C002BA8D010F0200018BFD9
:101C4000002903D0284600F0C9FB2A685069296C96
:101C500000F0400001F0080140182DD0D06820F4B9
:101C60009070D060506920F001005061286B01280D
:101C700003D1D06820F01000D060202085F83E000D
:101C800000202863506940061ED5506920F04000AE
:101C90005061A86BC0B142F2D131C0F6000141637E
:101CA000FEF7C6FA00283FF471AFA86B416B02B093
:101CB000BDE8B040084700BF2846FFF7F3FE00200C
:101CC000286402B0B0BD00BF284602B0BDE8B040F5
:101CD000FFF7E8BED16821F49071D160516921F01D
:101CE00001015161202185F83E1000212963D1684E
:101CF00021F0100381B22846D36002B0BDE8B040A5
:101D0000FFF7CEBE286A30F8021B6FF35F215160E7
:101D1000286206E7002804BF0120704710B504467A
:101D200090F83D0028B9002084F83C00204600F0DF
:101D30005FF8242084F83D002068D4E90212C368CB
:101D400023F40053C360036923F440531A43026130
:101D5000D4E904231143C268194341F20C639A4346
:101D60001143C1604169A26921F44071114343F6F6
:101D70000002C4F201029042416103D0FFF778FCF7
:101D800002E000BFFFF788FC626819214843910018
:101D9000B0FBF1F048F21F51C5F2EB11A0FB01239B
:101DA0005A096FF0630302FB0300322303EB0010B8
:101DB000A0FB0101F02303EA5113206803EB021298
:101DC000C1F3431111448160016921F49041016123
:101DD000416921F02A014161C16841F40051C160AB
:101DE00000202021206484F83D1084F83E1010BDAE
:101DF00070B586B0006844F20041C4F200010026CC
:101E000088420596CDE9036602963BD043F6000171
:101E1000C4F2010188426BD141F21800C4F2020001
:101E2000016840F6000441F4804101600168C4F299
:101E3000010401F4804101910199016802AD41F072
:101E4000040101600068294600F004000190019837
:101E50004FF400700290022003900320059020466A
:101E6000FEF750FA4FF4806002900020CDE90300A5
:101E700020462946FEF746FA252000210022252487
:101E800031E000BF41F21800C4F20200416840F6A0
:101E9000000441F4003141604168C4F2010401F4DE
:101EA000003101910199016802AD41F00401016026
:101EB0000068294600F00400019001980420029077
:101EC00002200390032005902046FEF71BFA08200D
:101ED000CDE90206204629460496FEF713FA26208D
:101EE000012100222624FEF795FB2046FEF782FB07
:101EF00006B070BD034690F83E0020280AD10029A4
:101F00004FF0010018BF002A00D1704793F83C0041
:101F1000012801D102207047002018639962222114
:101F20009A85DA85186483F83E10196883F83C00B6
:101F3000CA6842F48072CA604A6942F001024A618A
:101F4000CA6842F02002CA6070470000B0B500685D
:101F500043F60001C4F20101884218BFB0BD40F24F
:101F60006015C2F200056878022853D0012811D00C
:101F7000002840F0A080287850285BD0592840F0F5
:101F80009A806A6801216970511C6960A918887774
:101F900091E000BF68682978421C28440A296A60D9
:101FA000817740F0888095F82630002095F825400C
:101FB000312B4FF00003686095F8231095F824202A
:101FC00008BF5223AB73312C4FF0000308BF5123DD
:101FD000312A4FF00002EB7308BF502231292A74D6
:101FE00011BF05F111014F21697405F11001EA7F5C
:101FF0000870312A28D136A002F070F995F8200037
:10200000312827D00020E87495F82200312828D004
:102010002AE000BFA8682978421C28440A29AA603F
:10202000017548D1697D00204C29A86030D150202D
:10203000287433E0A96802206870481CA8606818FA
:102040005021017537E000BF0020A87495F82000EA
:102050003128D7D120A002F041F995F8220031288B
:1020600002D11FA002F03AF995F82100312802D1DF
:102070001DA002F033F905F11E042046FEF764F8B6
:1020800001462046FEF755F80020687013E000BFB7
:102090005229287402D14F2001E000BF002005F131
:1020A000140468742046FEF74FF801462046FEF7F8
:1020B00040F80020687040F6581040F26011C2F2FB
:1020C0000000C2F200010122BDE8B040FFF712BFDC
:1020D00047414D4500000000564F49434500000070
:1020E0005354415254000000454E44002DE9F04342
:1020F00081B0044690F83D0020280DD10F460029FC
:102100004FF0010000F092801646002A00F08E8009
:1021100094F83C00012803D1022001B0BDE8F0830F
:10212000012084F83C004FF0000921201D46C4F82E
:10213000409084F83D00FEF7EFF9A684E684A1689C
:102140008046B1F5805F25D1206900281CBF384644
:102150004F463E46074684F83C90E08C00B3681C2E
:1021600020D0002D66D120680BE000BF36F8021B9E
:1021700000276FF35F214160E18C0139E184E18C3C
:1021800081B30168090675D5002FEFD017F8011B40
:10219000F1E700BF002684F83C90E08C0028DED1F7
:1021A00020681FE0206802E00168090609D4016880
:1021B000090606D4016809065CBF01685FEA01618F
:1021C000F2D51FB117F8011B05E000BF36F8021B5E
:1021D00000276FF35F214160E18C0139E184E18CDC
:1021E0000029E4D1016849061CD4002D42D0691CA5
:1021F0000ED10168490615D4016849065CBF016823
:102200005FEA41610ED401684906F2D50AE000BFD9
:10221000FEF782F9A0EB08012068A9422AD80068DD
:102220004006F5D5202084F83D00002001B0BDE82F
:10223000F08300BF206800BF0168090608D4FEF7DC
:102240006BF9A0EB08012068A942F5D912E000BFA4
:1022500017B117F8011B04E036F8021B00276FF3D3
:102260005F214160E18C0139E184E18C0029E3D1F7
:10227000B8E700BFC16821F4D071C160416921F0A5
:1022800001014161202084F83D0084F83E000020D7
:1022900084F83C00032001B0BDE8F08370470000E3
:1022A000FEE7000083B041F21800C4F202000168AA
:1022B00041F010010160016801F0100102910299E2
:1022C000016841F020010160016801F020010191E5
:1022D0000199016841F004010160006800F0040008
:1022E0000090009803B0704780B540F6581043F650
:1022F0000001C2F20000C4F2010100234FF00C0CF7
:102300004FF4E13280E80E00C0E90333C0E905C3B1
:10231000C361FFF7FFFC002808BF80BDBDE8804017
:10232000FDF75CBF80B540F69C1044F20041C2F25C
:102330000000C4F2000100234FF00C0C4FF4E13216
:1023400080E80E00C0E90333C0E905C3C361FFF7AD
:10235000E1FC002808BF80BDBDE88040FDF73EBF1E
:1023600080B540F2A83040F25801C2F20000C2F23B
:102370000001002200F052FB002818BFFDF72EFFDD
:1023800040F2A83040F28C01C2F20000C2F200011B
:1023900000F06CFD002818BFFDF720FF40F2A830C8
:1023A000C2F2000000F078FD002808BF80BDBDE843
:1023B0008040FDF713BF0000FEE70000FEE70000CD
:1023C0007047000070470000FEF7ACB8704700008F
:1023D000406A0021C185C184FFF764BB81B090F8D9
:1023E0003E10222920D18368B3F5805F08D10169AE
:1023F000002941D000F128010A6803685B680AE0FF
:10240000014651F8282F13B90369002BF5D0036852
:102410005B6803F07F0313700A6801320A60C18DA4
:1024200001390A04C18501D001B070470168CA684A
:1024300022F02002CA60CA6822F48072CA604A6927
:1024400022F001024A61202280F83E20026B012A1C
:102450001CD100220263CB6823F01003CB600B6811
:10246000DB0605D500920A68009249680091009940
:10247000818D01B0FFF714BB0168826A49686FF370
:102480005F2122F8021B8262C9E700BF01B0FFF79B
:102490005DBD000040F65810C2F20000FFF704BB1B
:1024A00040F69C10C2F20000FFF7FEBA80B5D0F8EB
:1024B000B42252689047002080BD000080B51346CA
:1024C0000A46002100F0EAFB002080BD80B51346DB
:1024D0000A46002100F0ACFC002080BD10B5802130
:1024E000044600F077FC20460021BDE8104000F0D3
:1024F00071BC000080B50521C0F8941200210022B3
:10250000002300F0CBFB002080BD000080B5134607
:102510000A460221C0F894120021C0E9073300F0F6
:1025200087FC002080BD000080B50421C0F8941213
:1025300000210022002300F07BFC002080BD000071
:1025400010B540F29414C2F200040A4602A02146DB
:1025500000F010F9204610BD48494420436F6E66D4
:102560006967000040F278001222C2F200000A807F
:102570007047000010B540F29414C2F200040A46FD
:1025800002A0214600F0F6F8204610BD484944203C
:10259000496E7465726661636500000040F23C102C
:1025A0000422C2F200000A807047000010B540F219
:1025B0009414C2F200040A4602A0214600F0DAF8A0
:1025C000204610BD53544D6963726F656C6563742A
:1025D000726F6E696373000010B540F29414C2F21A
:1025E00000040A4602A0214600F0C4F8204610BDAF
:1025F00053544D33322048756D616E20696E746599
:102600007266616365000000B0B54FF2E870C1F614
:10261000FF70026883684FF01A0C9B18A1F800C085
:1026200000F0A3804FF0370C1A0F0CEB13714068C9
:10263000B3F1204F38BF02F1300140F24012C2F234
:102640000002917019014FF0000E0CEB117582F829
:1026500003E0C3F30364B1F1204F38BF04F1300548
:10266000190215710CEB117582F805E0C3F30354E0
:10267000B1F1204F38BF04F13005190395710CEB0F
:10268000117582F807E0C3F30344B1F1204F38BF5E
:1026900004F13005190415720CEB117582F809E08C
:1026A000C3F30334B1F1204F38BF04F130051905ED
:1026B00095720CEB117582F80BE0C3F30324B1F1B2
:1026C000204F38BF04F1300519061573C3F3031406
:1026D0000CEB1175B1F1204F4FEA037103F00F03BA
:1026E00082F80DE038BF04F1300503F1370495732B
:1026F00082F80FE0B1F1204F38BF03F13004010F31
:102700000CEB1073147482F811E0B0F1204F38BF55
:1027100001F1300301010CEB1174937482F813E0A2
:10272000C0F30363B1F1204F38BF03F1300401025D
:102730001475C0F303530CEB1174B1F1204F4FEA41
:10274000003182F815E038BF03F130040CEB11734F
:10275000947582F817E0C0F30340B1F1204F38BF01
:1027600000F13003137682F819E040F24010C2F213
:102770000000B0BD10B5002868D00378B3B100F1F7
:10278000020E4FF0000C00BF1EF8013C93B19EF802
:1027900000309BB19EF80130A3B19EF802300CF1DD
:1027A000040C002B0EF1040EEED10DE04FF0000CE6
:1027B0000AE000BF4CF0010C06E000BF4CF0020C38
:1027C00002E000BF4CF0030C5FFA8CFC022303EB29
:1027D0004C03138003220B704A7090F800E0BEF1A6
:1027E000000F33D0023002224FF0000C1AE000BF7D
:1027F000141DE4B244F0010E0B5501F80EC04378ED
:10280000002B08BF10BD941DE4B244F0010E0B551F
:1028100001F80EC090F802E00832BEF1000F00F19E
:10282000040013D0D3B243F0010401F803E001F82F
:1028300004C010F8013C4BB1941CE4B244F0010E0A
:102840000B5501F80EC00378002BD1D110BD00004C
:10285000D0F8B812002200200A737047B0B5812169
:10286000044600F005F9D4F8B8020025E56218B175
:1028700000F060FDC4F8B8520020B0BD014640F23F
:102880000C100A22C2F200000A807047014640F292
:10289000C4002222C2F200000A807047014640F2C2
:1028A000E8002222C2F200000A807047014640F28E
:1028B00018102222C2F200000A80704710B5812150
:1028C00003220823044600F0D5F90120E06210201D
:1028D00000F032FD0028C4F8B8020FBF0220014604
:1028E0000020087310BD000080B590F89C32032BC7
:1028F00005D194460A46D0F8B8120B7B13B10020DC
:1029000080BD00BF01230B738121634600F090FA64
:10291000002080BD80B582B00B78D0F8B8C200220C
:1029200013F06003ADF8062012D0202B40F0628037
:102930004A78931E092B00F25D80DFE803F0052F33
:102940005B5B5B5B5B5B21370CF1040127E000BF45
:102950004B780B2B4ED8DFE803F0074D4D4D4D4D16
:102960002F4D4D4D194300BF90F89C22032A41D1B1
:102970000DF106010222FFF7C9FD002002B080BD63
:10298000C878CCF80400002002B080BD90F89C22EA
:10299000032A2FD10CF1080101E000BF614601229A
:1029A000FFF7B4FD002002B080BD00BF8878CCF8EE
:1029B0000000002002B080BDCA78212A20D0222A3F
:1029C00018D1CA8840F20C01C2F200013F2A28BF88
:1029D0003F220C31FFF79AFD002002B080BD00BFFE
:1029E00090F89C22032A05D18878CCF808000020B2
:1029F00002B080BDFFF772FD022002B080BD00BFB3
:102A0000CA8840F20C01C2F20001092A28BF09223B
:102A1000FFF77CFD002002B080BD0000002804BF4D
:102A20000220704780B5D0F8B432002B1CBF0023C1
:102A3000C0F8B432002918BFC0F8B012012180F8E4
:102A40009C12027000F0D2F8002080BD80B5D0F852
:102A5000C002FDF777FE40F200220223C100C0F25F
:102A60000122042838BF22FA01F3D8B280BD000049
:102A700080B5D0F8C002FDF73FFE40F200220223ED
:102A8000C100C0F20122042838BF22FA01F3D8B2F3
:102A900080BD0000B0B5044671B1D4F8B4024269FB
:102AA00042B194F89C02032804D1204690470020AC
:102AB00054E000BF0220B0BDD4F89402002818BF33
:102AC000042805D12046802100F084F93DE000BFB4
:102AD00002283AD1D4E90810814209D9081A83B2F0
:102AE0002062204611461A46FFF7F0FC14E000BFB2
:102AF000E169814218D3B1FBF0F202FB101098B9E2
:102B0000D4F8980281420FD22046002100220025ED
:102B1000FFF7DCFCC4F89852204600210022002375
:102B200000F0BCF811E000BFD4F8B402C16829B1CC
:102B300094F89C02032801D1204688472046802132
:102B400000F048F92046FFF7D5FC94F8A0020128D0
:102B50004FF0000004BF84F8A002B0BDB0BD00007B
:102B6000B0B5044671B1D4F8B402826942B194F8A8
:102B70009C02032804D12046904700251CE000BF9A
:102B80000220B0BDD4F894020025052816D00328F1
:102B900012D1D4E95810814218D9091AC4F8601129
:102BA000814238BF084683B2204611461A46FFF7D5
:102BB00085FC0020B0BD00BF2846B0BD20460021E6
:102BC000C4F8945200F006F92846B0BDD4F8B40217
:102BD000016929B194F89C02032801D12046884755
:102BE0002046FFF7A1FC0020B0BD000010B5044650
:102BF00040F26C6045F60041C2F20000C4F20001F0
:102C00000822022380E80E000021C0F8E842C4F840
:102C1000C002C0E906110162FEF7C6FA002818BF1B
:102C2000FDF7DCFAD4F8C002002100221823FDF7DA
:102C30002DFDD4F8C002802100225823FDF726FD87
:102C4000D4F8C002812100224FF48073FDF71EFDED
:102C5000002010BDD0F8C00201F07F0202EB82021A
:102C600000EBC20000F12A02090658BF00F5B57258
:102C70001078704780B59446D0F8C0021A46634673
:102C8000FDF790FD40F200220223C100C0F20122B4
:102C9000042838BF22FA01F3D8B280BD80B5D0F83D
:102CA000C002FDF7AFFD40F200220223C100C0F2D6
:102CB0000122042838BF22FA01F3D8B280BD0000F7
:102CC000F0B581B0002100224023044600254026B3
:102CD000FFF7D0FF01272046802100224023C4F8BF
:102CE0005871C4F86461FFF7C5FFD4F8B802A76152
:102CF000666284F89C72C4F894526560C4F8A45269
:102D000028B1D4F8B4020021426820469047002040
:102D100001B0F0BD90F89C12042904BF90F89D12F8
:102D200080F89C120020704780B590F89C1203290F
:102D300005D1D0F8B412C969002918BF884700200E
:102D400080BD0000024600201174704780B5D0F8A5
:102D5000C002FEF7DDFA40F200220223C100C0F2F9
:102D60000122042838BF22FA01F3D8B280BD000046
:102D7000B0B500F52A750446284600F06BF894F8C3
:102D8000A8020121B4F8AE22C4F8941200F01F0189
:102D90000229C4F8982209D001290DD091B9204602
:102DA000294600F07FF80020B0BD00BF204629462C
:102DB00000F0DEF90020B0BD2046294600F07EFA82
:102DC0000020B0BD00F08001204600F003F8002094
:102DD000B0BD000080B5D0F8C002FDF72DFD40F277
:102DE00000220223C100C0F20122042838BF22FAC7
:102DF00001F3D8B280BD000080B5D0F8C002FEF764
:102E0000A3FA40F200220223C100C0F201220428EA
:102E100038BF22FA01F3D8B280BD0000014690F815
:102E20009C02042281F89D02002081F89C227047B8
:102E300080B5D0F8C002FDF73BFD40F2002202232E
:102E4000C100C0F20122042838BF22FA01F3D8B22F
:102E500080BD00000A7802704A7842704A88428039
:102E60008A888280C988C1807047000000290EBF0F
:102E70000220C0F8B41200207047000080B5D0F8DE
:102E8000B4223AB112689047002818BF01204000D0
:102E900080BD00BF022080BD80B5FFF7ADFF0020E0
:102EA00080BD0000B0B582B00D460978044611F02F
:102EB00060010DD0402902D0202940F04D81D4F886
:102EC000B4022946826820469047002002B0B0BD77
:102ED0006878092800F24081DFE810F00A00240039
:102EE0003E0130003E0166008A003E013800460087
:102EF00094F89C020138022800F22E81E88802280A
:102F000040F02A81D4F8A4020322002808BF01223D
:102F1000214641F80C2F20460222FFF7F7FA002045
:102F200002B0B0BD94F89C020138022800F214816E
:102F300068880128C9D1002004E000BF6888012802
:102F4000C3D10120C4F8A40200E100BFE888012831
:102F500040F0028194F89C02411E02295ED20020BA
:102F6000214641F8080F5DE0688840F29215C1B231
:102F7000C2F200050229287080F0EE8094F89C02CD
:102F8000032857D0022840F07780002900F0DE8027
:102F9000032084F89C0220466160FFF76FFF02283F
:102FA00040F0D480D8E000BFA888002840F0D4804A
:102FB000E888002840F0D08068887F2800F2CC8024
:102FC00094F89C12032900F0C780C5B284F89E02D1
:102FD00020462946FFF7BAFE2046FFF7A5FA002D46
:102FE0000CBF0120022084F89C02002002B0B0BD7A
:102FF00068884FF0FF3101EB102100220629ADF85F
:10300000062000F2A980DFE801F0054729A7A755AF
:103010005F0000BFD4F8B002026881E0032840F0EE
:103020009B80211D20460122FFF770FA002002B08C
:10303000B0BD00BF002955D06068012800F086802F
:10304000C1B22046FFF732FA297820466160FFF7C7
:1030500015FF022840F07A807EE000BFC0B205284C
:1030600000F27A80DFE800F004484C50545800BF6A
:10307000D4F8B002426852E020468021FFF7AAFE51
:1030800020460021FFF7A6FE29782046FFF70EFA1A
:10309000002002B0B0BD00BF217CD4F8B4020029EA
:1030A0000CBF816AC16A0DF1060088470146022003
:1030B00015E000BF207C00284ED1D4F8B402416B4B
:1030C0000DF1060088472FE0207C002844D1D4F879
:1030D000B402016B0DF106008847014607204870D5
:1030E00023E000BF022084F89C020020606020469C
:1030F000FFF7DCF92AE000BFD4F8B00282680EE0E6
:10310000D4F8B002C2680AE0D4F8B002026906E05E
:10311000D4F8B002426902E0D4F8B0028269DAB1B0
:10312000207C0DF1060190470146BDF8060048B12C
:10313000EA883AB1904238BF02462046ADF80620F0
:10314000FFF7E4F9E88800287FF4BFAE2046FFF7D8
:10315000EBF9002002B0B0BD20468021FFF73AFE17
:1031600020460021FFF736FE002002B0B0BD00006F
:10317000B0B50A460978044611F060010CD0402928
:1031800001D0202920D1D4F8B4021146836820460A
:1031900098470020B0BD00BF50781179F0B10128E8
:1031A00036D0032868D194F89C02032834D1508883
:1031B000002873D111F07F0070D0D08800286DD125
:1031C0002046FFF707FE69E020468021FFF702FE58
:1031D00020460021FFF7FEFD0020B0BD94F89C02C0
:1031E000032827D0022808BF5FEA416044D101F0DC
:1031F0007F0000EB800004EB800000F11402090660
:1032000058BF00F5AA7200201060204611464FE01A
:1032100094F89C02032839D002282DD148062BD0DF
:103220002046FFF7D7FD20468021FFF7D3FD002081
:10323000B0BD00BF01F00F0202EB820211F080006E
:1032400004EB820214BF9269D2F85821A2B101F0B6
:103250007F0202EB820204EB820202F114050028D5
:1032600008BF02F5AA7548061ED02046FFF7F2FCFB
:10327000D0B1012019E000BF20468021FFF7AAFD50
:1032800020460021FFF7A6FD0020B0BD5088002891
:10329000A2D1480602D02046FFF7D8FB2046FFF710
:1032A00043F90020B0BD00BF002028602046294619
:1032B0000222FFF72BF90020B0BD0000B0B50D468B
:1032C0000978044611F0600118BF402912D194F822
:1032D0009C020138022803D8A88810F0FE0F15D0F0
:1032E00020468021FFF776FD20460021FFF772FD82
:1032F0000020B0BD2029EAD020468021FFF76AFDDA
:1033000020460021FFF766FD0BE000BFD4F8B402B1
:103310002946826820469047E988002908BF00288E
:1033200002D00020B0BD00BF2046FFF7FDF800200E
:10333000B0BD00007047000040F29430C2F20000BF
:1033400070470000F0B50C78024691F803E000EBFE
:10335000840730F8240047F27063BEF1030F20EABF
:10336000030309D80020DFE80EF00309100D00BFA9
:1033700043F4007308E000BF012006E043F48063DB
:1033800002E000BF43F4C063002048F28005CFF69E
:10339000FF752B433B803B8840F60F763340234339
:1033A0002B433B800B7B48F2800C002B44D03B88A6
:1033B00040F60F652B400CF580752B433B80B2F82F
:1033C00050300D8902EB0414234425F00105A3F8C5
:1033D0000054B2F850204B89224423F00103A2F894
:1033E000083449783A88002902F480414AD039B13A
:1033F000398840F60F7211400CF580421143398034
:103400003988490607D5398840F60F7211400CF10A
:10341000400211433980398840F63F7211400CF167
:1034200020024A40BEF1010F08BF41EA0C023A8077
:10343000398843F60F7244E04D78B2F85030002DD1
:103440004FEA041442D0C98822441A4421F00101F1
:10345000A2F800143988490607D5398840F60F725A
:1034600011400CF1400211433980398840F63F7217
:10347000BEF1010F01EA020124D00CF120025140FB
:103480003980F0BD39B1398840F60F7211400CF522
:103490008042114339803988490607D5398840F67A
:1034A0000F7211400CF1400211433980398843F604
:1034B0000F7211400CF5405251403980398840F666
:1034C0003F72114041EA0C013980F0BDCD881619D8
:1034D000334425F00105A3F80854B2F850200B69D5
:1034E00006F20C4163B13E2B1AD803F0010606EB3D
:1034F00053039B025352398849042AD521E000BF67
:10350000535A48F2000623F4F8435352535ACFF665
:10351000FF7633435352398849041AD511E000BF6E
:103520005E094FF0FF35DC0608BF05EB531648F285
:103530000003CFF6FF7343EA8623535239884904C8
:1035400007D5398840F60F7211400CF580421143BF
:103550003980398843F60F7211400CF540525140C2
:103560003980F0BD00207047B0B50C784B78097BEE
:10357000024630F824004CF2800C4CF28005002901
:103580004FEA44013AD0002B00F4804040D040B1D3
:1035900032F8110040F60F73184040EA0C0022F890
:1035A000110032F8110043F60F7E400640F63F70DE
:1035B00009D532F8113040F60F742340ACF57F5432
:1035C000234322F8113032F8113040F60F742340B3
:1035D0002B43ACF5804522F8113032F811301840F9
:1035E000284322F8110032F81100ACF5804300EABC
:1035F0000E000343002022F81130B0BDF3B14006A5
:1036000040F63F7EEFD5ACF57F5540F60F70E4E70E
:1036100040B132F8110040F60F73184040EA0C0038
:1036200022F8110032F81100ACF57F55400640F643
:103630003F7E43F60F70BCD4C5E700BF400443F69D
:103640000F7ED0D540F60F70C7E70000002070470E
:103650000020704701460120A1F840000022002010
:10366000A1F84020A1F84420A1F8502070470000A4
:103670000146B0F8400044F2FF0202400020A1F8E9
:10368000402070470020704780B50A7B12B10020AF
:1036900080BD00BF0A784B7830F822C04FEA420262
:1036A000B3B15FEA4C6348F2A00E0BD530F812C0FC
:1036B00040F60F730CEA030C0EF1200343EA0C03EF
:1036C00020F81230C9780129E1D040F63F7110E0AE
:1036D0005FEA4C414BF2800E09D530F8121040F6EB
:1036E0000F7319400EF58053194320F8121043F65A
:1036F0000F7130F81230194081EA0E0120F81210D3
:10370000002080BD02460B78487832F823C040F68E
:103710003F71002848F2900008BF43F60F71CFF6C2
:10372000FF7008BF00F57F6001EA0C0141400020F6
:1037300022F82310704700002DE9F04F81B04A783D
:10374000012A55D18A69D1F810900F7B4A4588BF6C
:103750004A46002F48F2801B6CD0CF78022F40F0F1
:10376000A9800D780C6A30F8257040F60F664FEA94
:10377000450E4C4507EA060740F2008147EA0B0771
:10378000A4EB020820F81E70C1F8208030F81E70EB
:10379000B0F850607F064FEA051700EB070300F111
:1037A0005D819F190093A7F80424D1F814A0170491
:1037B00000F088830F894FF0FF3600EB470707F5CD
:1037C000806B97B20137C7F3410506EB5704002D14
:1037D0004FEA5707D44600F062833CF8023B5E464E
:1037E000012D26F8043B40F03B82013FB34656E3EF
:1037F0000B7B002B42D0CB78012B00F09D80022B5D
:1038000040F0B880002A40F0F381B0F850300A78D8
:103810000F6903441201002F03F2044300F0A28158
:103820003F2F80F0D18107F0010606EB5707BF025A
:10383000D7E100BF130400F06381CB88D1F814C036
:1038400000EB430303F5806893B201334FF0FF3779
:10385000C3F3410407EB530E002C4FEA530300F06F
:103860003C81674637F8025B4646012C26F8045B2C
:1038700040F01C81013BBC46B0462EE18B690A69D1
:103880009F1A38BF00278F61B0F850700E78074438
:1038900088BF13463201002B07F20C4700F0C680A8
:1038A0003E2B00F2CD8003F0010606EB53039B0292
:1038B000D353C9E10F7840F60F6530F827604FEA1F
:1038C000470E2E4046EA0B0620F827600E6AB41A0F
:1038D0000C6230F82760B0F850503F01760600EBDC
:1038E00007087BD408EB0503A3F80424D1F814A03F
:1038F000130400F0EF810B89CDF800E000EB4303E7
:1039000003F5806B93B25F1C4FF0FF33C7F34105A3
:1039100003EB570E002D4FEA5707D44600F0C58140
:103920003CF8023B5E46012D26F8043B40F0F48053
:10393000013FB346B9E100BF0F698B69DE1B38BF99
:10394000002688BF3B46002A8E6140F07D81B0F89A
:1039500050700A7807441201002B07F2044700F068
:103960001B813F2B80F05C8103F0010606EB5303C3
:103970009B0262E1012001B0BDE8F08FABF58072DF
:103980003A4320F81E20B0F8502000EB05131A44EB
:103990002304A2F8044400F021830B894A6900EB58
:1039A000430101F58067A1B201314FF0FF33C1F34C
:1039B000410503EB510C002D4FEA510100F0C98184
:1039C000164636F8024B3B46012D23F8044B40F0D7
:1039D000B180013932461F46BBE100BF08EB050745
:1039E000A7F80C24D1F814A0170400F0E5814F8942
:1039F00095B26E1C4FF0FF3500EB470705EB560301
:103A0000C6F3410507F5806C002D4FEA560759D0E3
:103A10005646CDF800E036F802EBE346012D2BF8D0
:103A200004EB40F09180013FDC46B0E1D35B23F42E
:103A3000F843D353D35B43F40043D35304E100BFB3
:103A40005E094FF0FF35DC0608BF05EB53164FF457
:103A5000004343EA8623D353F6E000BF9F19009347
:103A6000A7F80C24D1F814A0170400F083824F8922
:103A70004FF0FF3600EB470707F5806B97B2013731
:103A8000C7F3410506EB5704002D4FEA5707D4460C
:103A900000F05D823CF8023B5E46012D26F8043BB7
:103AA00040F0EC80013FB34651E200BFBCF8025049
:103AB000022CA8F8045007D108F108080CF1040CF6
:103AC000023B0AE0564666E1BCF804400CF1060CE5
:103AD000A8F8084008F10C08033BBEF1030F0FD310
:103AE000ACF10807A8F1100637F8085F043B26F888
:103AF000105F7D88B580BD883581FD88B581F3D1A3
:103B0000B0F850300978034403EB0113A3F8042400
:103B10004FEA410E62E200BFBAF80230022DABF864
:103B2000043040F0B9800BF1080B0AF1040C023F9D
:103B3000BBE000BF5388022DBB8040F005810837F1
:103B40000432023905E100BFBAF80260022DACF878
:103B5000046040F013810CF1080C0AF10406023FE6
:103B600015E100BFD75A27F4F847D752D75A47F480
:103B70000047D752B0F8503003441A44B2F80C341E
:103B800023F4F843A2F80C34B2F80C3443F40043A5
:103B9000A2F80C342CE000BFD35B23F4F843D353DA
:103BA000D35B43F40043D353B0F8503003441A447A
:103BB000B2F80C3423F4F843A2F80C34B2F80C3405
:103BC00043F400433EE000BF7E094FF0FF35FC06A2
:103BD00008BF05EB571648F20007CFF6FF7747EA14
:103BE0008627D752B0F8503003441A44A2F80C7418
:103BF000CA694AB30A7844F2400730F822303B40A1
:103C0000BB4200D003BB520030F8123040F60F77B1
:103C10003B40A3F5FD43C03B20F8123014E000BF49
:103C20005E094FF0FF35DC0608BF05EB531648F27E
:103C30000003CFF6FF7343EA8623D353B0F85070E6
:103C400007443A44A2F80C34097843F60F7200EBAB
:103C5000810048F28011CFF6FF7101F53C51C3E1BC
:103C6000BAF80260022DABF8046040F00F810BF14E
:103C7000080B0AF1040C023F11E100BFBAF8026020
:103C8000022DABF8046040F059810BF1080B0AF1EA
:103C9000040C023F5BE100BFBAF804300AF1060CE5
:103CA000ABF808300BF10C0B033FBEF1030FDDF84E
:103CB00000E00FD3ACF10806ABF1100536F8083F71
:103CC000043F25F8103F7388AB80B3882B81F388BD
:103CD000AB81F3D10AEB020600234C454E6184BF51
:103CE000A31A1446002C0B6200F07681B0F8502025
:103CF0002304424448F2801BA2F80C4400F06E8179
:103D000049894FF0FF3200EB410101F58067A1B214
:103D10000131C1F3410402EB5103002C4FEA510180
:103D200000F0858036F8025B3A46012C22F8045BED
:103D300002D1013917467AE036F8022B022CBA80FC
:103D400070D10837023972E0938806323B810C3714
:103D50000339BCF1030FC0F04181083AA7F1100309
:103D600032F8087F043923F8107F57889F8097889E
:103D70001F81D7889F81F3D130E100BFBAF804607A
:103D8000033FACF808600CF10C0C0AF10606DDF8F4
:103D900000E048F2801B032B0ED3083EACF1100567
:103DA00036F8083F043F25F8103F7388AB80B3888E
:103DB0002B81F388AB81F3D10AEB020600234C453B
:103DC0004E6184BFA31A1446002C0B6200F00681DA
:103DD000B0F8502023044244A2F8044400F0FE80CE
:103DE00009894FF0FF3200EB410101F58067A1B274
:103DF0000131C1F3410402EB51034FEA510184B395
:103E000036F8025B3A46012C22F8045B02D10139F4
:103E1000174626E036F8022B022CBA801CD1083750
:103E200002391EE036F8022B03393A810C37032B96
:103E3000C0F0D480A6F10803A7F1100233F8087F80
:103E4000043922F8107F5F8897809F881781DF8868
:103E50009781F3D1C2E000BF36F8022B03393A81D3
:103E60000C37032BC0F0BA80A6F10803A7F11002AB
:103E700033F8087F043922F8107F5F8897809F8885
:103E80001781DF889781F3D1A8E000BFBAF80460FA
:103E90000AF1060CABF808600BF10C0B033F032C86
:103EA00010D3ACF10806ABF1100500BF36F8084F8F
:103EB000043F25F8104F7488AC80B4882C81F488B6
:103EC000AC81F3D10AEB020600274E61C84588BFDA
:103ED000A8EB02070F62B0F8503088BF9046009AF6
:103EE0001A445FEA0843A2F80C8475D049894FF060
:103EF000FF3200EB410101F580671FFA88F10131C3
:103F0000C1F3410402EB5103002C4FEA510148F286
:103F1000801B00F07E8036F8025B3A46012C22F8C6
:103F2000045B03D10139174673E000BF36F8022B5A
:103F3000022CBA8068D1083702396AE0BAF8046006
:103F40000AF1060CABF808600BF10C0B033F032CD5
:103F500010D3ACF10806ABF1100500BF36F8084FDE
:103F6000043F25F8104F7488AC80B4882C81F48805
:103F7000AC81F3D10AEB020600274E61C84588BF29
:103F8000A8EB02070F62B0F8503088BF9046009A45
:103F90001A445FEA0843A2F804841DD009894FF04F
:103FA000FF3200EB410101F580671FFA88F1013112
:103FB000C1F3410402EB5103002C4FEA510148F2D6
:103FC000801B40D036F8025B3A46012C22F8045B95
:103FD00012D10139174636E048F2801B00EB4E0043
:103FE000ABF1D00140F63F7203881A405140018086
:103FF000002001B0BDE8F08F36F8022B022CBA8009
:104000001CD1083702391EE036F8022B03393A81F9
:104010000C37032BE2D3A6F10803A7F1100200BF6F
:1040200033F8087F043922F8107F5F8897809F88D3
:104030001781DF889781F3D1D0E700BF36F8022BD4
:1040400003393A810C37032BC8D3A6F10803A7F133
:10405000100200BF33F8087F043922F8107F5F8810
:1040600097809F881781DF889781F3D1B6E700009A
:1040700001460020A1F844004FF43F420020A1F87F
:104080004020704740F26C60C2F20000FCF72CBC8C
:10409000B0F844007047000070B500EB4200022BFE
:1040A00000F5806441D34FF0FF32C3F34105580857
:1040B00002EB530C55B1224632F8046B8E46012DAB
:1040C0002EF8026B08D1013817E000BF2246BCF180
:1040D000030F14462AD315E0A288022D4A8005D189
:1040E00001F1040E04F10802023806E0228901F110
:1040F000060E8A8004F10C0203387146BCF1030FEE
:10410000144613D332F8106B043821F8086B32F8D8
:104110000C6C21F8066C32F8086C21F8046C32F84B
:10412000046C21F8026CEDD114468E46D8071CBFF2
:1041300020888EF8000070BD00207047002904BF61
:104140008021A0F84C10002070470000B0B5002B73
:104150003ED000EB420000F5806E581C4FF0FF325D
:10416000C0F3410302EB500C4FEA5000EBB10A469A
:1041700032F8025B7446012B24F8045B04D1013849
:104180001146A64611E000BF4A88022BAEF8042073
:1041900004D10EF1080E0431023806E08A88063197
:1041A000AEF808200EF10C0E0338BCF1030F38BF37
:1041B000B0BD0839AEF1100231F8083F043822F8DA
:1041C000103F4B8893808B881381CB889381F3D1E8
:1041D000B0BD0000FEE7000080B582B0019040F65F
:1041E0005810C2F2000001A901224FF47A73FDF7C2
:1041F0007DFF019802B080BD94B0FCF7A1F90024C6
:104200000120CDE90F44CDE90D440A900E904FF402
:10421000E0104FF48031022513900AA8CDE9024442
:10422000CDE90B14CDE91151FDF74AFA20B1EFF3B6
:10423000108072B6FEE700BF0F20CDE905054FF4F0
:104240008060CDE9080405A802210794FDF730F944
:1042500020B1EFF3108072B6FEE700BF102001908E
:104260000020049001A8FDF79DF828B1EFF310801D
:1042700072B600BFFEE700BFFEF714F8FEF734F891
:10428000FEF76EF8FEF74EF840F2601440F6581054
:10429000C2F20004C2F2000021460122FDF72AFE0C
:1042A00040F2A8350C34C2F2000500BF2846214672
:1042B0000822FEF719FB1420FCF710F8F6E702E0DD
:1042C00008C8121F08C1002AFAD1704770470020A1
:1042D00001E001C1121F002AFBD1704710B504464E
:1042E00001E0FFF779FF14F8010B04490028F8D129
:1042F000BDE810400A20FFF76FBF0000000000205B
:104300000102000000000000000001020304060793
:104310000809000000000102030402030405060767
:1043200008090A0B0C0D0E0F101000005043000876
:1043300000000020600100007C010008204400080B
:1043400060010020880C0000CE4200080000000040
:10435000413201321015092111014401223F100E92
:1043600005010906A101050719E029E715281A2505
:104370000175019508810295017508810395057500
:1043800001050819012905911218080391039506E2
:104390007508261A6530111429658112C013652528
:1043A0001B089D041AAD041AD9041309261B0841E1
:1043B000081A7504111324F41312013202164083F3
:1043C000042B571D020102038513BD281B085D0441
:1043D0001B152924711A511001101A9D141A8D04ED
:1043E0001AAD041A7D04140902221301011DE032E2
:1043F0000904CD8C030102CA1607058103081A0AB5
:10440000DC091E2422074B0A0694198BF9300A1185
:104410000154071E040309041A03000000000000F1
:04000005080000ED02
:00000001FF
